{
  "contractName": "DEX",
  "abi": [
    {
      "inputs": [],
      "stateMutability": "nonpayable",
      "type": "constructor"
    },
    {
      "inputs": [],
      "name": "admin",
      "outputs": [
        {
          "internalType": "address",
          "name": "",
          "type": "address"
        }
      ],
      "stateMutability": "view",
      "type": "function"
    },
    {
      "inputs": [],
      "name": "nextOrderId",
      "outputs": [
        {
          "internalType": "uint256",
          "name": "",
          "type": "uint256"
        }
      ],
      "stateMutability": "view",
      "type": "function"
    },
    {
      "inputs": [
        {
          "internalType": "bytes32",
          "name": "",
          "type": "bytes32"
        },
        {
          "internalType": "uint256",
          "name": "",
          "type": "uint256"
        },
        {
          "internalType": "uint256",
          "name": "",
          "type": "uint256"
        }
      ],
      "name": "orderBook",
      "outputs": [
        {
          "internalType": "uint256",
          "name": "id",
          "type": "uint256"
        },
        {
          "internalType": "enum DEX.Side",
          "name": "side",
          "type": "uint8"
        },
        {
          "internalType": "bytes32",
          "name": "ticker",
          "type": "bytes32"
        },
        {
          "internalType": "uint256",
          "name": "amount",
          "type": "uint256"
        },
        {
          "internalType": "uint256",
          "name": "filled",
          "type": "uint256"
        },
        {
          "internalType": "uint256",
          "name": "price",
          "type": "uint256"
        },
        {
          "internalType": "uint256",
          "name": "date",
          "type": "uint256"
        }
      ],
      "stateMutability": "view",
      "type": "function"
    },
    {
      "inputs": [
        {
          "internalType": "uint256",
          "name": "",
          "type": "uint256"
        }
      ],
      "name": "tokenList",
      "outputs": [
        {
          "internalType": "bytes32",
          "name": "",
          "type": "bytes32"
        }
      ],
      "stateMutability": "view",
      "type": "function"
    },
    {
      "inputs": [
        {
          "internalType": "bytes32",
          "name": "",
          "type": "bytes32"
        }
      ],
      "name": "tokens",
      "outputs": [
        {
          "internalType": "bytes32",
          "name": "ticker",
          "type": "bytes32"
        },
        {
          "internalType": "address",
          "name": "tokenAddress",
          "type": "address"
        }
      ],
      "stateMutability": "view",
      "type": "function"
    },
    {
      "inputs": [
        {
          "internalType": "address",
          "name": "",
          "type": "address"
        },
        {
          "internalType": "bytes32",
          "name": "",
          "type": "bytes32"
        }
      ],
      "name": "traderBalances",
      "outputs": [
        {
          "internalType": "uint256",
          "name": "",
          "type": "uint256"
        }
      ],
      "stateMutability": "view",
      "type": "function"
    },
    {
      "inputs": [
        {
          "internalType": "bytes32",
          "name": "ticker",
          "type": "bytes32"
        },
        {
          "internalType": "address",
          "name": "tokenAddress",
          "type": "address"
        }
      ],
      "name": "addToken",
      "outputs": [],
      "stateMutability": "nonpayable",
      "type": "function"
    },
    {
      "inputs": [
        {
          "internalType": "uint256",
          "name": "amount",
          "type": "uint256"
        },
        {
          "internalType": "bytes32",
          "name": "ticker",
          "type": "bytes32"
        }
      ],
      "name": "deposit",
      "outputs": [],
      "stateMutability": "nonpayable",
      "type": "function"
    },
    {
      "inputs": [
        {
          "internalType": "uint256",
          "name": "amount",
          "type": "uint256"
        },
        {
          "internalType": "bytes32",
          "name": "ticker",
          "type": "bytes32"
        }
      ],
      "name": "withdraw",
      "outputs": [],
      "stateMutability": "nonpayable",
      "type": "function"
    },
    {
      "inputs": [
        {
          "internalType": "bytes32",
          "name": "ticker",
          "type": "bytes32"
        },
        {
          "internalType": "uint256",
          "name": "amount",
          "type": "uint256"
        },
        {
          "internalType": "uint256",
          "name": "price",
          "type": "uint256"
        },
        {
          "internalType": "enum DEX.Side",
          "name": "side",
          "type": "uint8"
        }
      ],
      "name": "createLimitOrder",
      "outputs": [],
      "stateMutability": "nonpayable",
      "type": "function"
    }
  ],
  "bytecode": "0x608060405234801561001057600080fd5b5033600460006101000a81548173ffffffffffffffffffffffffffffffffffffffff021916908373ffffffffffffffffffffffffffffffffffffffff160217905550611376806100616000396000f3fe608060405234801561001057600080fd5b506004361061009e5760003560e01c80639ead7222116100665780639ead722214610274578063a8d2021a146102b6578063c9630cb0146102ee578063d9c0c95014610326578063f851a440146103755761009e565b80630bb431b6146100a35780632a58b3301461013157806372ce957e1461014f578063904194a3146101b15780639776aacf14610226575b600080fd5b6100e3600480360360608110156100b957600080fd5b810190808035906020019092919080359060200190929190803590602001909291905050506103bf565b604051808881526020018760018111156100f957fe5b60ff16815260200186815260200185815260200184815260200183815260200182815260200197505050505050505060405180910390f35b610139610435565b6040518082815260200191505060405180910390f35b61019b6004803603604081101561016557600080fd5b81019080803573ffffffffffffffffffffffffffffffffffffffff1690602001909291908035906020019092919050505061043b565b6040518082815260200191505060405180910390f35b6101dd600480360360208110156101c757600080fd5b8101908080359060200190929190505050610460565b604051808381526020018273ffffffffffffffffffffffffffffffffffffffff1673ffffffffffffffffffffffffffffffffffffffff1681526020019250505060405180910390f35b6102726004803603604081101561023c57600080fd5b8101908080359060200190929190803573ffffffffffffffffffffffffffffffffffffffff1690602001909291905050506104a4565b005b6102a06004803603602081101561028a57600080fd5b8101908080359060200190929190505050610625565b6040518082815260200191505060405180910390f35b6102ec600480360360408110156102cc57600080fd5b810190808035906020019092919080359060200190929190505050610646565b005b6103246004803603604081101561030457600080fd5b810190808035906020019092919080359060200190929190505050610940565b005b6103736004803603608081101561033c57600080fd5b81019080803590602001909291908035906020019092919080359060200190929190803560ff169060200190929190505050610ba8565b005b61037d6112cf565b604051808273ffffffffffffffffffffffffffffffffffffffff1673ffffffffffffffffffffffffffffffffffffffff16815260200191505060405180910390f35b600360205282600052604060002060205281600052604060002081815481106103e457fe5b906000526020600020906007020160009250925050508060000154908060010160009054906101000a900460ff16908060020154908060030154908060040154908060050154908060060154905087565b60055481565b6002602052816000526040600020602052806000526040600020600091509150505481565b60006020528060005260406000206000915090508060000154908060010160009054906101000a900473ffffffffffffffffffffffffffffffffffffffff16905082565b600460009054906101000a900473ffffffffffffffffffffffffffffffffffffffff1673ffffffffffffffffffffffffffffffffffffffff163373ffffffffffffffffffffffffffffffffffffffff1614610567576040517f08c379a000000000000000000000000000000000000000000000000000000000815260040180806020018281038252600a8152602001807f6f6e6c792061646d696e0000000000000000000000000000000000000000000081525060200191505060405180910390fd5b60405180604001604052808381526020018273ffffffffffffffffffffffffffffffffffffffff168152506000808481526020019081526020016000206000820151816000015560208201518160010160006101000a81548173ffffffffffffffffffffffffffffffffffffffff021916908373ffffffffffffffffffffffffffffffffffffffff16021790555090505060018290806001815401808255809150506001900390600052602060002001600090919091909150555050565b6001818154811061063257fe5b906000526020600020016000915090505481565b80600073ffffffffffffffffffffffffffffffffffffffff1660008083815260200190815260200160002060010160009054906101000a900473ffffffffffffffffffffffffffffffffffffffff1673ffffffffffffffffffffffffffffffffffffffff16141561071f576040517f08c379a00000000000000000000000000000000000000000000000000000000081526004018080602001828103825260198152602001807f7468697320746f6b656e20646f6573206e6f742065786973740000000000000081525060200191505060405180910390fd5b82600260003373ffffffffffffffffffffffffffffffffffffffff1673ffffffffffffffffffffffffffffffffffffffff16815260200190815260200160002060008481526020019081526020016000205410156107e5576040517f08c379a000000000000000000000000000000000000000000000000000000000815260040180806020018281038252600f8152602001807f62616c616e636520746f6f206c6f77000000000000000000000000000000000081525060200191505060405180910390fd5b82600260003373ffffffffffffffffffffffffffffffffffffffff1673ffffffffffffffffffffffffffffffffffffffff16815260200190815260200160002060008481526020019081526020016000206000828254039250508190555060008083815260200190815260200160002060010160009054906101000a900473ffffffffffffffffffffffffffffffffffffffff1673ffffffffffffffffffffffffffffffffffffffff1663a9059cbb33856040518363ffffffff1660e01b8152600401808373ffffffffffffffffffffffffffffffffffffffff1673ffffffffffffffffffffffffffffffffffffffff16815260200182815260200192505050602060405180830381600087803b1580156108ff57600080fd5b505af1158015610913573d6000803e3d6000fd5b505050506040513d602081101561092957600080fd5b810190808051906020019092919050505050505050565b80600073ffffffffffffffffffffffffffffffffffffffff1660008083815260200190815260200160002060010160009054906101000a900473ffffffffffffffffffffffffffffffffffffffff1673ffffffffffffffffffffffffffffffffffffffff161415610a19576040517f08c379a00000000000000000000000000000000000000000000000000000000081526004018080602001828103825260198152602001807f7468697320746f6b656e20646f6573206e6f742065786973740000000000000081525060200191505060405180910390fd5b60008083815260200190815260200160002060010160009054906101000a900473ffffffffffffffffffffffffffffffffffffffff1673ffffffffffffffffffffffffffffffffffffffff166323b872dd3330866040518463ffffffff1660e01b8152600401808473ffffffffffffffffffffffffffffffffffffffff1673ffffffffffffffffffffffffffffffffffffffff1681526020018373ffffffffffffffffffffffffffffffffffffffff1673ffffffffffffffffffffffffffffffffffffffff1681526020018281526020019350505050602060405180830381600087803b158015610b0957600080fd5b505af1158015610b1d573d6000803e3d6000fd5b505050506040513d6020811015610b3357600080fd5b81019080805190602001909291905050505082600260003373ffffffffffffffffffffffffffffffffffffffff1673ffffffffffffffffffffffffffffffffffffffff168152602001908152602001600020600084815260200190815260200160002060008282540192505081905550505050565b83600073ffffffffffffffffffffffffffffffffffffffff1660008083815260200190815260200160002060010160009054906101000a900473ffffffffffffffffffffffffffffffffffffffff1673ffffffffffffffffffffffffffffffffffffffff161415610c81576040517f08c379a00000000000000000000000000000000000000000000000000000000081526004018080602001828103825260198152602001807f7468697320746f6b656e20646f6573206e6f742065786973740000000000000081525060200191505060405180910390fd5b7f4441490000000000000000000000000000000000000000000000000000000000851415610d17576040517f08c379a00000000000000000000000000000000000000000000000000000000081526004018080602001828103825260108152602001807f63616e6e6f74207472616465204441490000000000000000000000000000000081525060200191505060405180910390fd5b600180811115610d2357fe5b826001811115610d2f57fe5b1415610e005783600260003373ffffffffffffffffffffffffffffffffffffffff1673ffffffffffffffffffffffffffffffffffffffff1681526020019081526020016000206000878152602001908152602001600020541015610dfb576040517f08c379a00000000000000000000000000000000000000000000000000000000081526004018080602001828103825260158152602001807f746f6b656e2062616c616e636520746f6f206c6f77000000000000000000000081525060200191505060405180910390fd5b610ee9565b828402600260003373ffffffffffffffffffffffffffffffffffffffff1673ffffffffffffffffffffffffffffffffffffffff16815260200190815260200160002060007f44414900000000000000000000000000000000000000000000000000000000008152602001908152602001600020541015610ee8576040517f08c379a00000000000000000000000000000000000000000000000000000000081526004018080602001828103825260138152602001807f6461692062616c616e636520746f6f206c6f770000000000000000000000000081525060200191505060405180910390fd5b5b6000600360008781526020019081526020016000206000846001811115610f0c57fe5b81526020019081526020016000209050806040518060e001604052806005548152602001856001811115610f3c57fe5b8152602001888152602001878152602001600081526020018681526020014281525090806001815401808255809150506001900390600052602060002090600702016000909190919091506000820151816000015560208201518160010160006101000a81548160ff02191690836001811115610fb557fe5b021790555060408201518160020155606082015181600301556080820151816004015560a0820151816005015560c0820151816006015550506000600182805490500390505b60008111156112b4576000600181111561101157fe5b84600181111561101d57fe5b148015611066575081818154811061103157fe5b90600052602060002090600702016005015482600183038154811061105257fe5b906000526020600020906007020160050154115b15611070576112b4565b60018081111561107c57fe5b84600181111561108857fe5b1480156110d1575081818154811061109c57fe5b9060005260206000209060070201600501548260018303815481106110bd57fe5b906000526020600020906007020160050154105b156110db576112b4565b6110e36112f5565b8260018303815481106110f257fe5b90600052602060002090600702016040518060e0016040529081600082015481526020016001820160009054906101000a900460ff16600181111561113357fe5b600181111561113e57fe5b815260200160028201548152602001600382015481526020016004820154815260200160058201548152602001600682015481525050905082828154811061118257fe5b906000526020600020906007020183600184038154811061119f57fe5b9060005260206000209060070201600082015481600001556001820160009054906101000a900460ff168160010160006101000a81548160ff021916908360018111156111e857fe5b021790555060028201548160020155600382015481600301556004820154816004015560058201548160050155600682015481600601559050508083838154811061122f57fe5b90600052602060002090600702016000820151816000015560208201518160010160006101000a81548160ff0219169083600181111561126b57fe5b021790555060408201518160020155606082015181600301556080820151816004015560a0820151816005015560c0820151816006015590505081806001900392505050610ffb565b60056000815480929190600101919050555050505050505050565b600460009054906101000a900473ffffffffffffffffffffffffffffffffffffffff1681565b6040518060e00160405280600081526020016000600181111561131457fe5b81526020016000801916815260200160008152602001600081526020016000815260200160008152509056fea2646970667358221220ba128b2fad4371c8df246f323491a16cddea2885b4e29b4c10161762018255b764736f6c63430006030033",
  "source": "//SPDX-License-Identifier: MIT \n\npragma solidity 0.6.3;\n\nimport \"@openzeppelin/contracts/token/ERC20/IERC20.sol\";\n\ncontract DEX {\n\n    enum Side { \n        BUY, \n        SELL\n    }\n\n    struct Token {\n        bytes32 ticker;\n        address tokenAddress;\n    }\n\n    struct Order {\n        uint id;\n        Side side;\n        bytes32 ticker;\n        uint amount;\n        uint filled;\n        uint price;\n        uint date;\n    }\n\n    mapping(bytes32 => Token) public tokens;\n    bytes32[] public tokenList;\n    mapping(address => mapping(bytes32 => uint)) public traderBalances;\n    mapping(bytes32 => mapping(uint => Order[])) public orderBook;\n\n    address public admin;\n\n    uint public nextOrderId;\n\n    bytes32 constant DAI = bytes32('DAI');\n\n    constructor() public {\n        admin = msg.sender;\n    }\n\n    function addToken(\n        bytes32 ticker,\n        address tokenAddress) \n        onlyAdmin()\n        external {\n        tokens[ticker] = Token(ticker, tokenAddress);\n        tokenList.push(ticker);\n    }\n\n    function deposit(\n        uint amount, \n        bytes32 ticker) \n        tokenExists(ticker)\n        external {\n            IERC20(tokens[ticker].tokenAddress).transferFrom(\n                msg.sender,\n                address(this),\n                amount\n            );\n\n            traderBalances[msg.sender][ticker] += amount;\n    }\n\n    function withdraw(\n        uint amount,\n        bytes32 ticker) \n        tokenExists(ticker)\n        external {\n        require(traderBalances[msg.sender][ticker] >= amount, \"balance too low\");\n\n        traderBalances[msg.sender][ticker] -= amount;\n        IERC20(tokens[ticker].tokenAddress).transfer(msg.sender, amount);\n    }\n\n    function createLimitOrder(\n        bytes32 ticker,\n        uint amount,\n        uint price,\n        Side side)\n        tokenExists(ticker)\n        external {\n        require(ticker != DAI, \"cannot trade DAI\");\n\n        if (side == Side.SELL) {\n            require(\n                traderBalances[msg.sender][ticker] >= amount,\n                \"token balance too low\"\n            );\n        } else {\n            require(\n                traderBalances[msg.sender][DAI] >= amount * price,\n                \"dai balance too low\"\n            );\n        }\n\n        Order[] storage orders = orderBook[ticker][uint(side)];\n\n        orders.push(Order(\n            nextOrderId,\n            side,\n            ticker,\n            amount,\n            0,\n            price,\n            now\n        ));\n\n        uint i = orders.length - 1;\n        while (i > 0) {\n            if (side == Side.BUY && orders[i - 1].price > orders[i].price) {\n                break;\n            } \n            else if (side == Side.SELL && orders[i - 1].price < orders[i].price) {\n                break;\n            }\n            Order memory orderToMove = orders[i - 1];\n            orders[i - 1] = orders[i];\n            orders[i] = orderToMove;\n            i--;\n        }\n        nextOrderId++;\n    }\n\n    modifier tokenExists(bytes32 ticker) {\n        require(tokens[ticker].tokenAddress != address(0), \"this token does not exist\");\n        _;\n    }\n\n    modifier onlyAdmin() {\n        require(msg.sender == admin, \"only admin\");\n        _;\n    }\n\n}",
  "sourcePath": "/Users/macbook/Desktop/erc20_dex/packages/contracts/contracts/Dex.sol",
  "compiler": {
    "name": "solc",
    "version": "0.6.3+commit.8dda9521.Emscripten.clang"
  },
  "schemaVersion": "3.3.4",
  "updatedAt": "2023-04-13T20:47:31.178Z",
  "devdoc": {
    "methods": {}
  },
  "userdoc": {
    "methods": {}
  }
}