{
  "contractName": "DEX",
  "abi": [
    {
      "inputs": [],
      "stateMutability": "nonpayable",
      "type": "constructor"
    },
    {
      "anonymous": false,
      "inputs": [
        {
          "indexed": false,
          "internalType": "uint256",
          "name": "tradeId",
          "type": "uint256"
        },
        {
          "indexed": false,
          "internalType": "uint256",
          "name": "orderId",
          "type": "uint256"
        },
        {
          "indexed": true,
          "internalType": "bytes32",
          "name": "ticker",
          "type": "bytes32"
        },
        {
          "indexed": true,
          "internalType": "address",
          "name": "trader1",
          "type": "address"
        },
        {
          "indexed": true,
          "internalType": "address",
          "name": "trader2",
          "type": "address"
        },
        {
          "indexed": false,
          "internalType": "uint256",
          "name": "amount",
          "type": "uint256"
        },
        {
          "indexed": false,
          "internalType": "uint256",
          "name": "price",
          "type": "uint256"
        },
        {
          "indexed": false,
          "internalType": "uint256",
          "name": "date",
          "type": "uint256"
        }
      ],
      "name": "NewTrade",
      "type": "event"
    },
    {
      "inputs": [],
      "name": "admin",
      "outputs": [
        {
          "internalType": "address",
          "name": "",
          "type": "address"
        }
      ],
      "stateMutability": "view",
      "type": "function"
    },
    {
      "inputs": [],
      "name": "nextOrderId",
      "outputs": [
        {
          "internalType": "uint256",
          "name": "",
          "type": "uint256"
        }
      ],
      "stateMutability": "view",
      "type": "function"
    },
    {
      "inputs": [],
      "name": "nextTradeId",
      "outputs": [
        {
          "internalType": "uint256",
          "name": "",
          "type": "uint256"
        }
      ],
      "stateMutability": "view",
      "type": "function"
    },
    {
      "inputs": [
        {
          "internalType": "bytes32",
          "name": "",
          "type": "bytes32"
        },
        {
          "internalType": "uint256",
          "name": "",
          "type": "uint256"
        },
        {
          "internalType": "uint256",
          "name": "",
          "type": "uint256"
        }
      ],
      "name": "orderBook",
      "outputs": [
        {
          "internalType": "uint256",
          "name": "id",
          "type": "uint256"
        },
        {
          "internalType": "address",
          "name": "trader",
          "type": "address"
        },
        {
          "internalType": "enum DEX.Side",
          "name": "side",
          "type": "uint8"
        },
        {
          "internalType": "bytes32",
          "name": "ticker",
          "type": "bytes32"
        },
        {
          "internalType": "uint256",
          "name": "amount",
          "type": "uint256"
        },
        {
          "internalType": "uint256",
          "name": "filled",
          "type": "uint256"
        },
        {
          "internalType": "uint256",
          "name": "price",
          "type": "uint256"
        },
        {
          "internalType": "uint256",
          "name": "date",
          "type": "uint256"
        }
      ],
      "stateMutability": "view",
      "type": "function"
    },
    {
      "inputs": [
        {
          "internalType": "uint256",
          "name": "",
          "type": "uint256"
        }
      ],
      "name": "tokenList",
      "outputs": [
        {
          "internalType": "bytes32",
          "name": "",
          "type": "bytes32"
        }
      ],
      "stateMutability": "view",
      "type": "function"
    },
    {
      "inputs": [
        {
          "internalType": "bytes32",
          "name": "",
          "type": "bytes32"
        }
      ],
      "name": "tokens",
      "outputs": [
        {
          "internalType": "bytes32",
          "name": "ticker",
          "type": "bytes32"
        },
        {
          "internalType": "address",
          "name": "tokenAddress",
          "type": "address"
        }
      ],
      "stateMutability": "view",
      "type": "function"
    },
    {
      "inputs": [
        {
          "internalType": "address",
          "name": "",
          "type": "address"
        },
        {
          "internalType": "bytes32",
          "name": "",
          "type": "bytes32"
        }
      ],
      "name": "traderBalances",
      "outputs": [
        {
          "internalType": "uint256",
          "name": "",
          "type": "uint256"
        }
      ],
      "stateMutability": "view",
      "type": "function"
    },
    {
      "inputs": [
        {
          "internalType": "bytes32",
          "name": "ticker",
          "type": "bytes32"
        },
        {
          "internalType": "address",
          "name": "tokenAddress",
          "type": "address"
        }
      ],
      "name": "addToken",
      "outputs": [],
      "stateMutability": "nonpayable",
      "type": "function"
    },
    {
      "inputs": [
        {
          "internalType": "uint256",
          "name": "amount",
          "type": "uint256"
        },
        {
          "internalType": "bytes32",
          "name": "ticker",
          "type": "bytes32"
        }
      ],
      "name": "deposit",
      "outputs": [],
      "stateMutability": "nonpayable",
      "type": "function"
    },
    {
      "inputs": [
        {
          "internalType": "uint256",
          "name": "amount",
          "type": "uint256"
        },
        {
          "internalType": "bytes32",
          "name": "ticker",
          "type": "bytes32"
        }
      ],
      "name": "withdraw",
      "outputs": [],
      "stateMutability": "nonpayable",
      "type": "function"
    },
    {
      "inputs": [
        {
          "internalType": "bytes32",
          "name": "ticker",
          "type": "bytes32"
        },
        {
          "internalType": "uint256",
          "name": "amount",
          "type": "uint256"
        },
        {
          "internalType": "uint256",
          "name": "price",
          "type": "uint256"
        },
        {
          "internalType": "enum DEX.Side",
          "name": "side",
          "type": "uint8"
        }
      ],
      "name": "createLimitOrder",
      "outputs": [],
      "stateMutability": "nonpayable",
      "type": "function"
    },
    {
      "inputs": [
        {
          "internalType": "bytes32",
          "name": "ticker",
          "type": "bytes32"
        },
        {
          "internalType": "uint256",
          "name": "amount",
          "type": "uint256"
        },
        {
          "internalType": "enum DEX.Side",
          "name": "side",
          "type": "uint8"
        }
      ],
      "name": "createMarketOrder",
      "outputs": [],
      "stateMutability": "nonpayable",
      "type": "function"
    }
  ],
  "bytecode": "0x608060405234801561001057600080fd5b5033600460006101000a81548173ffffffffffffffffffffffffffffffffffffffff021916908373ffffffffffffffffffffffffffffffffffffffff16021790555061229d806100616000396000f3fe608060405234801561001057600080fd5b50600436106100b45760003560e01c80639776aacf116100715780639776aacf146102d25780639ead722214610320578063a8d2021a14610362578063c9630cb01461039a578063d9c0c950146103d2578063f851a44014610421576100b4565b80630bb431b6146100b95780632a58b3301461017a57806372ce957e146101985780637f2c6246146101fa578063813ad0831461023f578063904194a31461025d575b600080fd5b6100f9600480360360608110156100cf57600080fd5b8101908080359060200190929190803590602001909291908035906020019092919050505061046b565b604051808981526020018873ffffffffffffffffffffffffffffffffffffffff1673ffffffffffffffffffffffffffffffffffffffff16815260200187600181111561014157fe5b60ff1681526020018681526020018581526020018481526020018381526020018281526020019850505050505050505060405180910390f35b610182610507565b6040518082815260200191505060405180910390f35b6101e4600480360360408110156101ae57600080fd5b81019080803573ffffffffffffffffffffffffffffffffffffffff1690602001909291908035906020019092919050505061050d565b6040518082815260200191505060405180910390f35b61023d6004803603606081101561021057600080fd5b810190808035906020019092919080359060200190929190803560ff169060200190929190505050610532565b005b6102476111f8565b6040518082815260200191505060405180910390f35b6102896004803603602081101561027357600080fd5b81019080803590602001909291905050506111fe565b604051808381526020018273ffffffffffffffffffffffffffffffffffffffff1673ffffffffffffffffffffffffffffffffffffffff1681526020019250505060405180910390f35b61031e600480360360408110156102e857600080fd5b8101908080359060200190929190803573ffffffffffffffffffffffffffffffffffffffff169060200190929190505050611242565b005b61034c6004803603602081101561033657600080fd5b81019080803590602001909291905050506113c3565b6040518082815260200191505060405180910390f35b6103986004803603604081101561037857600080fd5b8101908080359060200190929190803590602001909291905050506113e4565b005b6103d0600480360360408110156103b057600080fd5b8101908080359060200190929190803590602001909291905050506116de565b005b61041f600480360360808110156103e857600080fd5b81019080803590602001909291908035906020019092919080359060200190929190803560ff169060200190929190505050611946565b005b6104296121d8565b604051808273ffffffffffffffffffffffffffffffffffffffff1673ffffffffffffffffffffffffffffffffffffffff16815260200191505060405180910390f35b6003602052826000526040600020602052816000526040600020818154811061049057fe5b906000526020600020906007020160009250925050508060000154908060010160009054906101000a900473ffffffffffffffffffffffffffffffffffffffff16908060010160149054906101000a900460ff16908060020154908060030154908060040154908060050154908060060154905088565b60055481565b6002602052816000526040600020602052806000526040600020600091509150505481565b82600073ffffffffffffffffffffffffffffffffffffffff1660008083815260200190815260200160002060010160009054906101000a900473ffffffffffffffffffffffffffffffffffffffff1673ffffffffffffffffffffffffffffffffffffffff16141561060b576040517f08c379a00000000000000000000000000000000000000000000000000000000081526004018080602001828103825260198152602001807f7468697320746f6b656e20646f6573206e6f742065786973740000000000000081525060200191505060405180910390fd5b837f44414900000000000000000000000000000000000000000000000000000000008114156106a2576040517f08c379a00000000000000000000000000000000000000000000000000000000081526004018080602001828103825260108152602001807f63616e6e6f74207472616465204441490000000000000000000000000000000081525060200191505060405180910390fd5b6001808111156106ae57fe5b8360018111156106ba57fe5b14156107875783600260003373ffffffffffffffffffffffffffffffffffffffff1673ffffffffffffffffffffffffffffffffffffffff1681526020019081526020016000206000878152602001908152602001600020541015610786576040517f08c379a00000000000000000000000000000000000000000000000000000000081526004018080602001828103825260158152602001807f746f6b656e2062616c616e636520746f6f206c6f77000000000000000000000081525060200191505060405180910390fd5b5b60006003600087815260200190815260200160002060008060018111156107aa57fe5b8660018111156107b657fe5b146107c25760006107c5565b60015b60018111156107d057fe5b815260200190815260200160002090506000808690505b8280549050821080156107fa5750600081115b15610fc757600083838154811061080d57fe5b90600052602060002090600702016004015484848154811061082b57fe5b906000526020600020906007020160030154039050600081831161084f5782610851565b815b905080830392508085858154811061086557fe5b9060005260206000209060070201600401600082825401925050819055503373ffffffffffffffffffffffffffffffffffffffff168585815481106108a657fe5b906000526020600020906007020160010160009054906101000a900473ffffffffffffffffffffffffffffffffffffffff1673ffffffffffffffffffffffffffffffffffffffff168b7fdb0c486e680ba8026643e6a85f8d157b5e7bcd4b32b54d564542570a9eb2041660065489898154811061091f57fe5b906000526020600020906007020160000154868b8b8154811061093e57fe5b90600052602060002090600702016005015442604051808681526020018581526020018481526020018381526020018281526020019550505050505060405180910390a460018081111561098e57fe5b88600181111561099a57fe5b1415610c115780600260003373ffffffffffffffffffffffffffffffffffffffff1673ffffffffffffffffffffffffffffffffffffffff16815260200190815260200160002060008c815260200190815260200160002060008282540392505081905550848481548110610a0a57fe5b9060005260206000209060070201600501548102600260003373ffffffffffffffffffffffffffffffffffffffff1673ffffffffffffffffffffffffffffffffffffffff16815260200190815260200160002060007f44414900000000000000000000000000000000000000000000000000000000008152602001908152602001600020600082825401925050819055508060026000878781548110610aac57fe5b906000526020600020906007020160010160009054906101000a900473ffffffffffffffffffffffffffffffffffffffff1673ffffffffffffffffffffffffffffffffffffffff1673ffffffffffffffffffffffffffffffffffffffff16815260200190815260200160002060008c815260200190815260200160002060008282540192505081905550848481548110610b4257fe5b906000526020600020906007020160050154810260026000878781548110610b6657fe5b906000526020600020906007020160010160009054906101000a900473ffffffffffffffffffffffffffffffffffffffff1673ffffffffffffffffffffffffffffffffffffffff1673ffffffffffffffffffffffffffffffffffffffff16815260200190815260200160002060007f44414900000000000000000000000000000000000000000000000000000000008152602001908152602001600020600082825403925050819055505b60006001811115610c1e57fe5b886001811115610c2a57fe5b1415610fa657848481548110610c3c57fe5b9060005260206000209060070201600501548102600260003373ffffffffffffffffffffffffffffffffffffffff1673ffffffffffffffffffffffffffffffffffffffff16815260200190815260200160002060007f44414900000000000000000000000000000000000000000000000000000000008152602001908152602001600020541015610d35576040517f08c379a00000000000000000000000000000000000000000000000000000000081526004018080602001828103825260138152602001807f6461692062616c616e636520746f6f206c6f770000000000000000000000000081525060200191505060405180910390fd5b80600260003373ffffffffffffffffffffffffffffffffffffffff1673ffffffffffffffffffffffffffffffffffffffff16815260200190815260200160002060008c815260200190815260200160002060008282540192505081905550848481548110610d9f57fe5b9060005260206000209060070201600501548102600260003373ffffffffffffffffffffffffffffffffffffffff1673ffffffffffffffffffffffffffffffffffffffff16815260200190815260200160002060007f44414900000000000000000000000000000000000000000000000000000000008152602001908152602001600020600082825403925050819055508060026000878781548110610e4157fe5b906000526020600020906007020160010160009054906101000a900473ffffffffffffffffffffffffffffffffffffffff1673ffffffffffffffffffffffffffffffffffffffff1673ffffffffffffffffffffffffffffffffffffffff16815260200190815260200160002060008c815260200190815260200160002060008282540392505081905550848481548110610ed757fe5b906000526020600020906007020160050154810260026000878781548110610efb57fe5b906000526020600020906007020160010160009054906101000a900473ffffffffffffffffffffffffffffffffffffffff1673ffffffffffffffffffffffffffffffffffffffff1673ffffffffffffffffffffffffffffffffffffffff16815260200190815260200160002060007f44414900000000000000000000000000000000000000000000000000000000008152602001908152602001600020600082825401925050819055505b600660008154809291906001019190505550838060010194505050506107e7565b600091505b8280549050821080156110185750828281548110610fe657fe5b90600052602060002090600702016003015483838154811061100457fe5b906000526020600020906007020160040154145b156111ee5760008290505b60018480549050038110156111525783600182018154811061104157fe5b906000526020600020906007020184828154811061105b57fe5b9060005260206000209060070201600082015481600001556001820160009054906101000a900473ffffffffffffffffffffffffffffffffffffffff168160010160006101000a81548173ffffffffffffffffffffffffffffffffffffffff021916908373ffffffffffffffffffffffffffffffffffffffff1602179055506001820160149054906101000a900460ff168160010160146101000a81548160ff0219169083600181111561110b57fe5b021790555060028201548160020155600382015481600301556004820154816004015560058201548160050155600682015481600601559050508080600101915050611023565b508280548061115d57fe5b60019003818190600052602060002090600702016000808201600090556001820160006101000a81549073ffffffffffffffffffffffffffffffffffffffff02191690556001820160146101000a81549060ff021916905560028201600090556003820160009055600482016000905560058201600090556006820160009055505090558180600101925050610fcc565b5050505050505050565b60065481565b60006020528060005260406000206000915090508060000154908060010160009054906101000a900473ffffffffffffffffffffffffffffffffffffffff16905082565b600460009054906101000a900473ffffffffffffffffffffffffffffffffffffffff1673ffffffffffffffffffffffffffffffffffffffff163373ffffffffffffffffffffffffffffffffffffffff1614611305576040517f08c379a000000000000000000000000000000000000000000000000000000000815260040180806020018281038252600a8152602001807f6f6e6c792061646d696e0000000000000000000000000000000000000000000081525060200191505060405180910390fd5b60405180604001604052808381526020018273ffffffffffffffffffffffffffffffffffffffff168152506000808481526020019081526020016000206000820151816000015560208201518160010160006101000a81548173ffffffffffffffffffffffffffffffffffffffff021916908373ffffffffffffffffffffffffffffffffffffffff16021790555090505060018290806001815401808255809150506001900390600052602060002001600090919091909150555050565b600181815481106113d057fe5b906000526020600020016000915090505481565b80600073ffffffffffffffffffffffffffffffffffffffff1660008083815260200190815260200160002060010160009054906101000a900473ffffffffffffffffffffffffffffffffffffffff1673ffffffffffffffffffffffffffffffffffffffff1614156114bd576040517f08c379a00000000000000000000000000000000000000000000000000000000081526004018080602001828103825260198152602001807f7468697320746f6b656e20646f6573206e6f742065786973740000000000000081525060200191505060405180910390fd5b82600260003373ffffffffffffffffffffffffffffffffffffffff1673ffffffffffffffffffffffffffffffffffffffff1681526020019081526020016000206000848152602001908152602001600020541015611583576040517f08c379a000000000000000000000000000000000000000000000000000000000815260040180806020018281038252600f8152602001807f62616c616e636520746f6f206c6f77000000000000000000000000000000000081525060200191505060405180910390fd5b82600260003373ffffffffffffffffffffffffffffffffffffffff1673ffffffffffffffffffffffffffffffffffffffff16815260200190815260200160002060008481526020019081526020016000206000828254039250508190555060008083815260200190815260200160002060010160009054906101000a900473ffffffffffffffffffffffffffffffffffffffff1673ffffffffffffffffffffffffffffffffffffffff1663a9059cbb33856040518363ffffffff1660e01b8152600401808373ffffffffffffffffffffffffffffffffffffffff1673ffffffffffffffffffffffffffffffffffffffff16815260200182815260200192505050602060405180830381600087803b15801561169d57600080fd5b505af11580156116b1573d6000803e3d6000fd5b505050506040513d60208110156116c757600080fd5b810190808051906020019092919050505050505050565b80600073ffffffffffffffffffffffffffffffffffffffff1660008083815260200190815260200160002060010160009054906101000a900473ffffffffffffffffffffffffffffffffffffffff1673ffffffffffffffffffffffffffffffffffffffff1614156117b7576040517f08c379a00000000000000000000000000000000000000000000000000000000081526004018080602001828103825260198152602001807f7468697320746f6b656e20646f6573206e6f742065786973740000000000000081525060200191505060405180910390fd5b60008083815260200190815260200160002060010160009054906101000a900473ffffffffffffffffffffffffffffffffffffffff1673ffffffffffffffffffffffffffffffffffffffff166323b872dd3330866040518463ffffffff1660e01b8152600401808473ffffffffffffffffffffffffffffffffffffffff1673ffffffffffffffffffffffffffffffffffffffff1681526020018373ffffffffffffffffffffffffffffffffffffffff1673ffffffffffffffffffffffffffffffffffffffff1681526020018281526020019350505050602060405180830381600087803b1580156118a757600080fd5b505af11580156118bb573d6000803e3d6000fd5b505050506040513d60208110156118d157600080fd5b81019080805190602001909291905050505082600260003373ffffffffffffffffffffffffffffffffffffffff1673ffffffffffffffffffffffffffffffffffffffff168152602001908152602001600020600084815260200190815260200160002060008282540192505081905550505050565b83600073ffffffffffffffffffffffffffffffffffffffff1660008083815260200190815260200160002060010160009054906101000a900473ffffffffffffffffffffffffffffffffffffffff1673ffffffffffffffffffffffffffffffffffffffff161415611a1f576040517f08c379a00000000000000000000000000000000000000000000000000000000081526004018080602001828103825260198152602001807f7468697320746f6b656e20646f6573206e6f742065786973740000000000000081525060200191505060405180910390fd5b847f4441490000000000000000000000000000000000000000000000000000000000811415611ab6576040517f08c379a00000000000000000000000000000000000000000000000000000000081526004018080602001828103825260108152602001807f63616e6e6f74207472616465204441490000000000000000000000000000000081525060200191505060405180910390fd5b600180811115611ac257fe5b836001811115611ace57fe5b1415611b9f5784600260003373ffffffffffffffffffffffffffffffffffffffff1673ffffffffffffffffffffffffffffffffffffffff1681526020019081526020016000206000888152602001908152602001600020541015611b9a576040517f08c379a00000000000000000000000000000000000000000000000000000000081526004018080602001828103825260158152602001807f746f6b656e2062616c616e636520746f6f206c6f77000000000000000000000081525060200191505060405180910390fd5b611c88565b838502600260003373ffffffffffffffffffffffffffffffffffffffff1673ffffffffffffffffffffffffffffffffffffffff16815260200190815260200160002060007f44414900000000000000000000000000000000000000000000000000000000008152602001908152602001600020541015611c87576040517f08c379a00000000000000000000000000000000000000000000000000000000081526004018080602001828103825260138152602001807f6461692062616c616e636520746f6f206c6f770000000000000000000000000081525060200191505060405180910390fd5b5b6000600360008881526020019081526020016000206000856001811115611cab57fe5b815260200190815260200160002090508060405180610100016040528060055481526020013373ffffffffffffffffffffffffffffffffffffffff168152602001866001811115611cf857fe5b8152602001898152602001888152602001600081526020018781526020014281525090806001815401808255809150506001900390600052602060002090600702016000909190919091506000820151816000015560208201518160010160006101000a81548173ffffffffffffffffffffffffffffffffffffffff021916908373ffffffffffffffffffffffffffffffffffffffff16021790555060408201518160010160146101000a81548160ff02191690836001811115611db857fe5b0217905550606082015181600201556080820151816003015560a0820151816004015560c0820151816005015560e0820151816006015550506000600182805490500390505b60008111156121bc5760006001811115611e1457fe5b856001811115611e2057fe5b148015611e695750818181548110611e3457fe5b906000526020600020906007020160050154826001830381548110611e5557fe5b906000526020600020906007020160050154115b15611e73576121bc565b600180811115611e7f57fe5b856001811115611e8b57fe5b148015611ed45750818181548110611e9f57fe5b906000526020600020906007020160050154826001830381548110611ec057fe5b906000526020600020906007020160050154105b15611ede576121bc565b611ee66121fe565b826001830381548110611ef557fe5b906000526020600020906007020160405180610100016040529081600082015481526020016001820160009054906101000a900473ffffffffffffffffffffffffffffffffffffffff1673ffffffffffffffffffffffffffffffffffffffff1673ffffffffffffffffffffffffffffffffffffffff1681526020016001820160149054906101000a900460ff166001811115611f8d57fe5b6001811115611f9857fe5b8152602001600282015481526020016003820154815260200160048201548152602001600582015481526020016006820154815250509050828281548110611fdc57fe5b9060005260206000209060070201836001840381548110611ff957fe5b9060005260206000209060070201600082015481600001556001820160009054906101000a900473ffffffffffffffffffffffffffffffffffffffff168160010160006101000a81548173ffffffffffffffffffffffffffffffffffffffff021916908373ffffffffffffffffffffffffffffffffffffffff1602179055506001820160149054906101000a900460ff168160010160146101000a81548160ff021916908360018111156120a957fe5b02179055506002820154816002015560038201548160030155600482015481600401556005820154816005015560068201548160060155905050808383815481106120f057fe5b90600052602060002090600702016000820151816000015560208201518160010160006101000a81548173ffffffffffffffffffffffffffffffffffffffff021916908373ffffffffffffffffffffffffffffffffffffffff16021790555060408201518160010160146101000a81548160ff0219169083600181111561217357fe5b0217905550606082015181600201556080820151816003015560a0820151816004015560c0820151816005015560e0820151816006015590505081806001900392505050611dfe565b6005600081548092919060010191905055505050505050505050565b600460009054906101000a900473ffffffffffffffffffffffffffffffffffffffff1681565b60405180610100016040528060008152602001600073ffffffffffffffffffffffffffffffffffffffff1681526020016000600181111561223b57fe5b81526020016000801916815260200160008152602001600081526020016000815260200160008152509056fea26469706673582212201145575db2f477da258eb000474a7ba62562056b6ada82a6d4e2a138a3e652d364736f6c63430006030033",
  "source": "//SPDX-License-Identifier: MIT \n\npragma solidity 0.6.3;\n\nimport \"@openzeppelin/contracts/token/ERC20/IERC20.sol\";\n\ncontract DEX {\n\n    enum Side { \n        BUY, \n        SELL\n    }\n\n    struct Token {\n        bytes32 ticker;\n        address tokenAddress;\n    }\n\n    struct Order {\n        uint id;\n        address trader;\n        Side side;\n        bytes32 ticker;\n        uint amount;\n        uint filled;\n        uint price;\n        uint date;\n    }\n\n    mapping(bytes32 => Token) public tokens;\n    bytes32[] public tokenList;\n    mapping(address => mapping(bytes32 => uint)) public traderBalances;\n    mapping(bytes32 => mapping(uint => Order[])) public orderBook;\n\n    address public admin;\n\n    uint public nextOrderId;\n\n    uint public nextTradeId;\n\n    bytes32 constant DAI = bytes32('DAI');\n\n    event NewTrade(\n        uint tradeId,\n        uint orderId,\n        bytes32 indexed ticker,\n        address indexed trader1,\n        address indexed trader2,\n        uint amount,\n        uint price,\n        uint date\n    );\n\n    constructor() public {\n        admin = msg.sender;\n    }\n\n    function addToken(\n        bytes32 ticker,\n        address tokenAddress) \n        onlyAdmin()\n        external {\n        tokens[ticker] = Token(ticker, tokenAddress);\n        tokenList.push(ticker);\n    }\n\n    function deposit(\n        uint amount, \n        bytes32 ticker) \n        tokenExists(ticker)\n        external {\n            IERC20(tokens[ticker].tokenAddress).transferFrom(\n                msg.sender,\n                address(this),\n                amount\n            );\n\n            traderBalances[msg.sender][ticker] += amount;\n    }\n\n    function withdraw(\n        uint amount,\n        bytes32 ticker) \n        tokenExists(ticker)\n        external {\n        require(traderBalances[msg.sender][ticker] >= amount, \"balance too low\");\n\n        traderBalances[msg.sender][ticker] -= amount;\n        IERC20(tokens[ticker].tokenAddress).transfer(msg.sender, amount);\n    }\n\n    function createLimitOrder(\n        bytes32 ticker,\n        uint amount,\n        uint price,\n        Side side)\n        tokenExists(ticker)\n        tokenIsNotDai(ticker)\n        external {\n        if (side == Side.SELL) {\n            require(\n                traderBalances[msg.sender][ticker] >= amount,\n                \"token balance too low\"\n            );\n        } else {\n            require(\n                traderBalances[msg.sender][DAI] >= amount * price,\n                \"dai balance too low\"\n            );\n        }\n\n        Order[] storage orders = orderBook[ticker][uint(side)];\n\n        orders.push(Order(\n            nextOrderId,\n            msg.sender,\n            side,\n            ticker,\n            amount,\n            0,\n            price,\n            now\n        ));\n\n        uint i = orders.length - 1;\n        while (i > 0) {\n            if (side == Side.BUY && orders[i - 1].price > orders[i].price) {\n                break;\n            } \n            else if (side == Side.SELL && orders[i - 1].price < orders[i].price) {\n                break;\n            }\n            Order memory orderToMove = orders[i - 1];\n            orders[i - 1] = orders[i];\n            orders[i] = orderToMove;\n            i--;\n        }\n        nextOrderId++;\n    }\n\n    function createMarketOrder(\n        bytes32 ticker,\n        uint amount,\n        Side side)\n        tokenExists(ticker)\n        tokenIsNotDai(ticker)\n        external {\n        if (side == Side.SELL) {\n            require(\n                traderBalances[msg.sender][ticker] >= amount,\n                \"token balance too low\"\n            );\n        }\n\n        Order[] storage orders = orderBook[ticker][uint(side == Side.BUY ? Side.SELL : Side.BUY)];\n\n        uint i;\n        uint remaining = amount;\n\n        while(i < orders.length && remaining > 0) {\n            uint available = orders[i].amount - orders[i].filled;\n            uint matched = (remaining > available) ? available : remaining;\n\n            remaining -= matched;\n            orders[i].filled += matched;\n\n            emit NewTrade(\n                nextTradeId,\n                orders[i].id,\n                ticker,\n                orders[i].trader,\n                msg.sender,\n                matched,\n                orders[i].price,\n                now\n            );\n\n            if (side == Side.SELL) {\n                traderBalances[msg.sender][ticker] -= matched;\n                traderBalances[msg.sender][DAI] += matched * orders[i].price;\n                \n                traderBalances[orders[i].trader][ticker] += matched;\n                traderBalances[orders[i].trader][DAI] -= matched * orders[i].price;\n            } \n\n            if (side == Side.BUY) {\n                require(\n                    traderBalances[msg.sender][DAI] >= matched * orders[i].price,\n                    \"dai balance too low\"\n                );\n\n                traderBalances[msg.sender][ticker] += matched;\n                traderBalances[msg.sender][DAI] -= matched * orders[i].price;\n                \n                traderBalances[orders[i].trader][ticker] -= matched;\n                traderBalances[orders[i].trader][DAI] += matched * orders[i].price;\n            }\n            nextTradeId++;\n            i++;\n        }\n\n        i = 0;\n        while(i < orders.length && orders[i].filled == orders[i].amount) {\n            for (uint j = i; j < orders.length - 1; j++) {\n                orders[j] = orders[j + 1];\n            }\n            orders.pop();\n            i++;\n        }\n    }\n\n    modifier tokenIsNotDai(bytes32 ticker) {\n        require(ticker != DAI, \"cannot trade DAI\");\n        _;\n    }\n\n    modifier tokenExists(bytes32 ticker) {\n        require(tokens[ticker].tokenAddress != address(0), \"this token does not exist\");\n        _;\n    }\n\n    modifier onlyAdmin() {\n        require(msg.sender == admin, \"only admin\");\n        _;\n    }\n\n}",
  "sourcePath": "/Users/macbook/Desktop/erc20_dex/packages/contracts/contracts/Dex.sol",
  "compiler": {
    "name": "solc",
    "version": "0.6.3+commit.8dda9521.Emscripten.clang"
  },
  "schemaVersion": "3.3.4",
  "updatedAt": "2023-04-13T21:34:03.177Z",
  "devdoc": {
    "methods": {}
  },
  "userdoc": {
    "methods": {}
  }
}